:100000000C94AA0C0C94DB0C0C94DB0C0C94DB0C05
:100010000C94DB0C0C94DB0C0C94DB0C0C94DB0CC4
:100020000C94DB0C0C94DB0C0C94DB0C0C94DB0CB4
:100030000C94DB0C0C9416A60C94DB0C0C94DB0CCF
:100040000C94DB0C0C94CE730C94DB0C0C94DB0C3A
:100050000C94DB0C0C94DB0C0C94D1820C9483A6D6
:100060000C94DB0C0C945F120C94DB0C0C94DB0CEA
:100070000C94DB0C0C94DB0C0C94DB0C0C94DB0C64
:100080000C94DB0C0C94DB0C0C94DB0C0C94DB0C54
:100090000C94DB0C0C94DB0C0C94DB0C0C94469F46
:1000A0000C94DB0C0C94DB0C0C94DB0C0C94DB0C34
:1000B0000C94DB0C0C94DB0C0C94DB0C0C94DB0C24
:1000C0000C94DB0C0C94DB0C0C94DB0C0C94DB0C14
:1000D0000C94DB0C0C94DB0C0C94DB0C0C94DB0C04
:1000E0000C94DB0C2B833A83568365837F838E834A
:1000F000A883AC83B483C3A7C8A7CDA7D7A7E1A71C
:100100005AA8EBA7F3A7FBA705A80FA819A828A82A
:1001100032A85AA83CA846A850A87BA87EA86DA8DB
:1001200071A877A8B5A882A886A88CA890A894A83A
:100130009AA89EA8A2A8B5A8A8A8ACA8B0A8084A42
:10014000D73B3BCE016E84BCBFFDC12F3D6C7431EB
:100150009ABD56833DDA3D00C77F11BED9E4BB4C42
:100160003E916BAAAABE000000803F05A84CCDB20C
:10017000D44EB93836A9020C50B9918688083CA6ED
:10018000AAAA2ABE000000803F0048617264636F23
:100190006465642044656661756C7420536574748D
:1001A000696E6773204C6F616465640020440020B1
:1001B00049002020204D3330312050005049442048
:1001C00073657474696E67733A002053002052009F
:1001D00020204D363635204C0044656C7461207308
:1001E000657474696E67733A204C3D64656C746124
:1001F0005F646961676F6E616C5F726F642C20521F
:100200003D64656C74615F7261646975732C205321
:100210003D64656C74615F7365676D656E74735F73
:100220007065725F7365636F6E6400205A002059B9
:100230000020204D363636205800456E6473746FAA
:10024000702061646A757374656D656E7420286DC5
:100250006D293A00205A0020590020204D323036B6
:10026000205800486F6D65206F666673657420289E
:100270006D6D293A00204500205A00205800204288
:100280000020540020204D32303520530041647648
:10029000616E636564207661726961626C65733A50
:1002A00020533D4D696E20666565647261746520FA
:1002B000286D6D2F73292C20543D4D696E2074726A
:1002C0006176656C20666565647261746520286D71
:1002D0006D2F73292C20423D6D696E696D756D20FF
:1002E0007365676D656E742074696D6520286D7324
:1002F000292C20583D6D6178696D756D2058592005
:100300006A65726B20286D6D2F73292C20205A3D51
:100310006D6178696D756D205A206A65726B202851
:100320006D6D2F73292C2020453D6D6178696D75A9
:100330006D2045206A65726B20286D6D2F73290032
:1003400020540020204D3230342053004163636537
:100350006C65726174696F6E3A20533D61636365C9
:100360006C65726174696F6E2C20543D7265747295
:1003700061637420616363656C65726174696F6E3B
:1003800000204500205A0020590020204D323031F5
:100390002058004D6178696D756D20416363656C0F
:1003A00065726174696F6E20286D6D2F7332293A02
:1003B00000204500205A0020590020204D323033C3
:1003C0002058004D6178696D756D206665656472B1
:1003D0006174657320286D6D2F73293A00204500E4
:1003E000205A0020590020204D39322058005374E3
:1003F0006570732070657220756E69743A000A002A
:10040000205A3A0020593A0063757272656E745F23
:10041000706F736974696F6E20583A006563686F16
:100420003A004B494C4C45442E20005072696E7482
:1004300065722068616C7465642E206B696C6C2831
:10044000292063616C6C656421006F6B00526573D9
:10045000656E643A20000A002063616C6C6564205C
:10046000686F6D656178697320666F722061786965
:100470007320002200556E6B6E6F776E20636F6D78
:100480006D616E643A2022004368616E6765206684
:10049000696C616D656E74007A5F6D61783A2000F9
:1004A000795F6D61783A2000785F6D61783A20005D
:1004B0002043733A002042733A002041733A0020EF
:1004C000433A0020423A0020413A00205A3A0020A4
:1004D000593A00583A004649524D574152455F4EED
:1004E000414D453A4D61726C696E2056313B205347
:1004F0007072696E7465722F6772626C206D6173C1
:1005000068757020666F722067656E3620464952A6
:100510004D574152455F55524C3A68747470733A66
:100520002F2F6769746875622E636F6D2F4572692E
:100530006B5A616C6D2F4D61726C696E2F20505239
:100540004F544F434F4C5F56455253494F4E3A31EB
:100550002E33204D414348494E455F545950453A4A
:1005600053616E647072696E74657220455854529E
:10057000554445525F434F554E543A3120555549E5
:10058000443A30303030303030302D303030302D53
:10059000303030302D303030302D30303030303061
:1005A0003030303030300A0053616E647072696EE2
:1005B000746572204F66662E0053616E64707269B6
:1005C0006E7465722072656164792E0042656420E4
:1005D000646F6E652E0020423A0020453A00543A7E
:1005E000004265642048656174696E672E00486545
:1005F0006174696E6720646F6E652E0020573A0043
:1006000020453A00543A002042403A0020403A0047
:10061000202F003A00205400202F0020423A0020D2
:100620002F006F6B20543A002569206D696E2C20D5
:1006300025692073656300456E642066696C6520DA
:100640006C69737400426567696E2066696C652029
:100650006C697374004E6F206D6F76652E00526565
:1006600073756D696E67207072696E740057616989
:100670007420666F7220757365722E2E2E000A002C
:10068000205A3A0020593A0073657474696E6720E5
:100690007468697320706879736963616C20706F26
:1006A000736974696F6E20617420583A00666F75C3
:1006B0006E64204739320A00433A2000423A200053
:1006C000413A2000666F756E642047362C207275A3
:1006D0006E6E696E6720746573742070726F6772D6
:1006E000616D0A000A0020433A0020423A0063612B
:1006F000626C6520413A000A0020433A0020423AE9
:1007000000706F736974696F6E20413A000A0020AF
:100710005A3A0020593A0064657374696E617469CD
:100720006F6E20583A000A00205A3A0020593A00C9
:1007300063757272656E745F706F736974696F6EE2
:1007400020583A00506172616D6574657265733A44
:100750000A00666F756E642047350A00536C656544
:10076000702E2E2E00256920686F75727320256902
:10077000206D696E7574657300446F6E65207072CC
:10078000696E74696E672066696C650053544F50DA
:100790005045442E20005072696E74657220737447
:1007A0006F707065642064756520746F2065727267
:1007B0006F72732E204669782074686520657272A6
:1007C0006F7220616E6420757365204D3939392050
:1007D000746F20726573746172742E202854656D75
:1007E00070657261747572652069732072657365D6
:1007F000742E2053657420697420616674657220BC
:1008000072657374617274696E6729006F6B004E54
:100810006F204C696E65204E756D62657220776938
:10082000746820636865636B73756D2C204C61730D
:1008300074204C696E653A20004E6F2043686563F2
:100840006B73756D2077697468206C696E65206EB6
:10085000756D6265722C204C617374204C696E65F5
:100860003A2000636865636B73756D206D69736D05
:10087000617463682C204C617374204C696E653A16
:1008800020004C696E65204E756D6265722069733B
:10089000206E6F74204C617374204C696E65204E1D
:1008A000756D6265722B312C204C617374204C691C
:1008B0006E653A20004D31313000446F6E65207313
:1008C0006176696E672066696C652E006F6B004DFE
:1008D0003239000A00205A3A0020593A00736574F0
:1008E00074696E67207468697320706879736963CE
:1008F000616C20706F736974696F6E206174205829
:100900003A002020506C616E6E65724275666665B5
:100910007242797465733A20002046726565204DF5
:10092000656D6F72793A200044656320203720326C
:1009300030313600436F6D70696C65643A20002871
:100940004772616D617A696F204B6F686C657220C8
:1009500052657365617263682C2064656661756CAD
:100960007420636F6E6669672900207C204175746E
:10097000686F723A2000446563202037203230319E
:10098000362031313A31343A323100204C617374BF
:1009900020557064617465643A2000312E302E3029
:1009A000004D61726C696E0020536F6674776172DE
:1009B0006520526573657400205761746368646FC5
:1009C00067205265736574002042726F776E206FE6
:1009D0007574205265736574002045787465726E75
:1009E000616C20526573657400506F776572557045
:1009F00000737461727420636F6E74726F6C6C65D7
:100A000072002200656E717565696E672022002292
:100A100000656E717565696E672022000101010035
:100A200000A0400000A0400000A0400000FA4400E8
:100A300000FA440000FA440000000000000000003A
:100A4000007A4300007A4400007A4400007A4400AF
:100A5000007AC400007AC400007AC46563686F3A03
:100A6000004572726F723A007C3C3E5E2B3D3F2F18
:100A70005B5D3B2C2A225C004D38342058205920E5
:100A80005A2045004D3234004D3233202573006129
:100A900075746F25692E67006572726F72207772A8
:100AA0006974696E6720746F2066696C65004E6FAB
:100AB00074205344207072696E74696E67002F0051
:100AC0005344207072696E74696E67206279746530
:100AD00020002E0044656C6574696F6E2066616944
:100AE0006C65642C2046696C653A200046696C652B
:100AF0002064656C657465643A002E006F70656EE5
:100B0000206661696C65642C2046696C653A20003A
:100B100057726974696E6720746F2066696C653AF4
:100B200020002E006F70656E206661696C65642C14
:100B30002046696C653A20002E006F70656E206655
:100B400061696C65642C2046696C653A20004669D1
:100B50006C652073656C6563746564002053697A05
:100B6000653A200046696C65206F70656E65643A71
:100B700020002E006F70656E206661696C65642CC4
:100B80002046696C653A20004E6F77206672657367
:100B9000682066696C653A20004E6F7720646F6943
:100BA0006E672066696C653A20002220706F7300C2
:100BB0002220706172656E743A2200535542524F82
:100BC0005554494E452043414C4C20746172676531
:100BD000743A2200747279696E6720746F206361C1
:100BE0006C6C207375622D67636F64652066696C39
:100BF0006573207769746820746F6F206D616E79FA
:100C0000206C6576656C732E204D4158206C65769E
:100C1000656C2069733A0053442063617264206FED
:100C20006B006F70656E526F6F74206661696C65E2
:100C30006400766F6C756D652E696E6974206661EF
:100C4000696C656400534420696E6974206661694B
:100C50006C006563686F3A004572726F723A0020EB
:100C6000746F6F206C6F6E6720657874727573692E
:100C70006F6E2070726576656E7465640020636FB8
:100C80006C6420657874727573696F6E207072651C
:100C900076656E7465640020746F6F206C6F6E678C
:100CA00020657874727573696F6E207072657665F1
:100CB0006E7465640020636F6C642065787472756F
:100CC00073696F6E2070726576656E746564002955
:100CD0000A00205B5A5F415849535D3D00205B5933
:100CE0005F415849535D3D0020746172676574200F
:100CF000285B585F415849535D3D000909706C619C
:100D00006E5F6275666665725F6C696E6528292024
:100D10002D3E20006563686F3A000A00205A3A00B1
:100D200020593A0073745F7365745F706F736974F0
:100D3000696F6E20583A00656E6473746F7073202B
:100D40006869743A205A00205A3A00656E647374D8
:100D50006F7073206869743A20590020593A006511
:100D60006E6473746F7073206869743A2058002041
:100D7000583A00656E6473746F7073206869743AD2
:100D8000200024F4D43050C38E20C2A24017828B9E
:100D90007011127A910D816CD90AA861E108C758C7
:100DA0006607615143061E4B5D05C145A7041A4104
:100DB0001104093D9803713931034036DB02653374
:100DC0009102D4305402802E1D02632CEE01752A4C
:100DD000C501B028A001102781018F2564012B24B3
:100DE0004B01E0223401AC211F018D200D01801F39
:100DF000FC00841EED00971DDF00B81CD200E61B2E
:100E0000C600201BBC00641AB200B219A8000A195F
:100E1000A0006A189900D117910040178B00B516F1
:100E2000840031167E00B31579003A157300C7149B
:100E30006F0058146A00EE136600881363002513D0
:100E40005E00C7125B006C12570015125400C111EE
:100E5000510070114F0021114B00D61049008D1028
:100E600047004610440002104200C00F4000800FAF
:100E70003E00420F3C00060F3B00CB0E3800930EA5
:100E800037005C0E3500270E3400F30D3200C10D23
:100E90003100900D3000600D2E00320D2D00050D3B
:100EA0002C00D90C2B00AE0C2900850C29005C0C01
:100EB0002700350C27000E0C2600E80B2400C40B7D
:100EC0002400A00B23007D0B23005A0B2100390BBB
:100ED0002100180B2000F80A1F00D90A1E00BB0AC7
:100EE0001E009D0A1D00800A1D00630A1C00470A9F
:100EF0001B002C0A1B00110A1A00F7091A00DD0951
:100F00001900C4091900AB091900920917007B09DF
:100F10001800630917004C0916003609160020094D
:100F200016000A091500F5081500E0081400CC08A1
:100F30001400B8081400A4081400900813007D08D9
:100F400012006B08130058081200460812003408FB
:100F50001100230811001208110001081100F00708
:100F60001000E0071000D0071000C0071000B00705
:100F70000F00A107100091070E0083070F007407F0
:100F80000F0065070E0057070E0049070E003B07CC
:100F90000D002E070E0020070D0013070D00060799
:100FA0000D00F9060C00ED060D00E0060C00D4065D
:100FB0000C00C8060C00BC060C00B0060C00A40611
:100FC0000B0099060C008D060B0082060B007706BD
:100FD0000B006C060B0061060A0057060B004C065E
:100FE0000A0042060A0038060A002E060A002406F5
:100FF0000A001A060A001006090007060A00FD0585
:101000000900F4050900EB050900E2050900D9050E
:101010000900D0050900C7050900BE050900B5058E
:101020000800AD050800A50509009C050800940509
:1010300008008C050800840508007C05080074057C
:1010400008006C050700650508005D0507005605EA
:1010500008004E0507004705070040050800380551
:101060000700310507002A050700230507001C05B6
:101070000600160507000F05070008050600020513
:101080000700FB040600F5040700EE040600E80470
:101090000600E2040700DB040600D5040600CF04C6
:1010A0000600C9040600C3040600BD040600B70418
:1010B0000600B1040500AC040600A6040600A00466
:1010C00005009B04060095040500900406008A04B0
:1010D000050085040500800406007A0405007504F7
:1010E0000500700405006B0405006604050061043A
:1010F00005005C04050057040500520405004D047A
:10110000050048040500430405003E0404003A04B9
:10111000050035040500300404002C0405002704F4
:101120000400230405001E0404001A04040016042D
:101130000500110404000D04040009040500040462
:10114000040000040400FC030400F8030400F4039A
:101150000400F0030400EC030400E8030400E403CB
:101160000400E0030400DC030400D8030400D403FB
:101170000400D0030400CC030400C8030300C5032B
:10118000030024F404D9201BC40C5C0E9804C40989
:101190005F0265077101F405F900FB04B300480420
:1011A0008700C10369005803550003034500BE02D0
:1011B0003A008402310053022A0029022500040269
:1011C0002000E4011C00C8011900AF0117009801BC
:1011D000140084011300710110006101100051011D
:1011E0000E0043010D0036010B002B010B00200106
:1011F0000B00150109000C01090003010800FB00A8
:101200000800F3000800EB000700E4000600DE0021
:101210000600D8000600D2000600CC000500C7007A
:101220000500C2000500BD000400B9000400B500BF
:101230000400B1000400AD000400A9000400A500F2
:101240000300A20003009F0004009B00030098001D
:1012500003009500020093000300900003008D003E
:1012600002008B0003008800020086000200840058
:101270000300810002007F0002007D0002007B006D
:10128000020079000200770001007600020074007D
:10129000020072000100710002006F0002006D0088
:1012A00001006C0002006A00010069000200670092
:1012B0000100660001006500010064000200620098
:1012C000010061000100600001005F0002005D009C
:1012D00001005C0001005B0001005A0001005900A0
:1012E00001005800010057000100560001005500A0
:1012F000010054000100530000005300010052009F
:10130000010051000100500001004F0001004E009B
:1013100000004E0001004D0001004C0001004B0098
:1013200000004B0001004A00010049000100480094
:101330000000480001004700010046000000460090
:101340000100450000004500010044000100430089
:101350000000430001004200000042000100410083
:10136000000041000100400001003F0000003F007C
:1013700001003E0000003E0001003D0000003D0075
:1013800001003C0000003C0000003C0001003B006C
:1013900000003B0001003A0000003A000100390063
:1013A000000039000100380000003800000038005B
:1013B0000100370000003700010036000000360051
:1013C0000000360001003500000035000000350047
:1013D000010034000000340000003400010033003C
:1013E0000000330000003300010032000000320032
:1013F0000000320001003100000031000000310027
:1014000001003000000030000000300001002F001B
:1014100000002F0000002F0000002F0001002E0010
:1014200000002E0000002E0001002D0000002D0005
:1014300000002D0000002D0001002C0000002C00F9
:1014400000002C0000002C0001002B0000002B00ED
:1014500000002B0000002B0001002A0000002A00E1
:1014600000002A0000002A000100290000002900D5
:1014700000002900000029000000290001002800C8
:1014800000002800000028000000280000002800BC
:1014900001002700000027000000270000002700AF
:1014A00000002700010026000000260000002600A2
:1014B0000000260000002600010025000000250095
:1014C0000000250000002500000025000000250088
:1014D000010024000000240000002400000024007B
:1014E000000024000100230000002300000023006E
:1014F0000000230000002300000023000000230060
:101500000100220000002200000022000000220052
:101510000000220000002200010021000000210044
:101520000000210000002100000021000000210037
:101530000000210001002000000020000000200029
:10154000000020000000200000002000000020001B
:101550000000200001001F0000001F0000001F000D
:1015600000001F0000001F0000001F0000001F00FF
:1015700001001E0000001E0000001E0000001E00F2
:1015800000006563686F3A00202D20496E76616C1B
:101590006964206578747275646572206E756D6219
:1015A0006572202100504944204175746F74756E36
:1015B000652066696E6973686564212050757420C2
:1015C000746865206C617374204B702C204B69200B
:1015D000616E64204B6420636F6E7374616E74730C
:1015E0002066726F6D2061626F766520696E746F20
:1015F00020436F6E66696775726174696F6E2E68DD
:1016000000504944204175746F74756E65206661A1
:10161000696C6564212074696D656F757400204084
:101620003A006F6B20543A006F6B20423A005049E9
:1016300044204175746F74756E65206661696C65D0
:1016400064212054656D70657261747572652074D3
:101650006F6F206869676800204B643A2000204B58
:10166000693A2000204B703A200020436C6173736C
:1016700069632050494420002054753A2000204BD3
:10168000753A2000206D61783A2000206D696E3A2D
:10169000200020643A200020626961733A200045EE
:1016A00072726F723A00436172642072656D6F7678
:1016B0006564004361726420696E73657274656469
:1016C000005370656564005370656564004D616921
:1016D0006E00580059005A004D6F7665205A004D33
:1016E0006F76652059004D6F76652058004D616911
:1016F0006E004100420043004D6F76652043004D6F
:101700006F76652042004D6F76652041004D61691E
:101710006E004D38300053776974636820706F77BE
:101720006572206F6E004D383100537769746368BD
:1017300020706F776572206F66660047323800410F
:1017400075746F20686F6D65004D3834004469739F
:1017500061626C65207374657070657273004D61B1
:10176000696E005A73746570732F6D6D005A7374CF
:101770006570732F6D6D005973746570732F6D6D87
:10178000005973746570732F6D6D005873746570B4
:10179000732F6D6D005873746570732F6D6D0041FC
:1017A0006363656C00416363656C004D6F765363E2
:1017B000616C65004D6F765363616C6500436F6EBD
:1017C00074726F6C004D6F74696F6E004D61696E5D
:1017D00000436F6E74726F6C005072657061726559
:1017E000004D6F7665207374657070657273004D7F
:1017F0006F766520617869730054756E6500496E77
:10180000666F2073637265656E000200000A0B024A
:10181000090C0D0E08070304010000000000000081
:1018200000000000000000000000000000000000B8
:101830000000000000000012111000000000000075
:101840000000000000000000000000000000000098
:1018500000010210202008081020401020408002C3
:1018600001020108040201010204081020408080E6
:10187000402010080402018004020180402010086A
:101880000402010804020101020408102040800142
:101890000204081020408005050505070508080812
:1018A00008020202020A0A080804040404010101F1
:1018B00001010101010303030303030303040707F9
:1018C000070C0C0C0C0C0C0C0C0202020206060697
:1018D00006060606060B0B0B0B0B0B0B0B00002270
:1018E00000250028002B002E0031003400020100EA
:1018F00000050108010B0100002100240027002A37
:10190000002D003000330001010000040107010A2E
:10191000014E414E494E495459494E46CDCCCC3DDD
:101920000AD7233C17B7D13877CC2B329595E624CC
:101930001FB14F0A000020410000C84200401C4671
:1019400020BCBE4CCA1B0E5AAEC59D744E3C8E9731
:1019500009A1F33C11241FBECFEFD1E2DEBFCDBF02
:1019600000E00CBF14E0A0E0B2E0ECE9F8E601E032
:101970000BBF02C007900D92AC3AB107D9F723E133
:10198000ACEAB4E001C01D92A635B207E1F719E157
:10199000C2E5D9E100E006C022970109FE010BBFB4
:1019A0000E9424AECC34D10780E00807A9F70E943A
:1019B00076A60C943DB40C940000CF93DF93CCE159
:1019C000D4E0FE018491882341F09091C00095FFFE
:1019D000FCCF8093C6003196F5CFE8E0F4E0849127
:1019E000882341F09091C00095FFFCCF8093C60002
:1019F0003196F5CF409168075091690760916A0769
:101A000070916B0722E030E08CEA94E07BD7E4E051
:101A1000F4E08491882341F09091C00095FFFCCFC1
:101A20008093C6003196F5CF40916C0750916D07B9
:101A300060916E0770916F0722E030E08CEA94E0CD
:101A400061D7E0E0F4E08491882341F09091C000F8
:101A500095FFFCCF8093C6003196F5CF409170077B
:101A600050917107609172077091730722E030E026
:101A70008CEA94E047D7EEEFF3E08491882341F0BD
:101A80009091C00095FFFCCF8093C6003196F5CFB2
:101A9000FE018491ECE1F4E0882349F09091C000CC
:101AA00095FFFCCF8093C60031968491F5CFEEEE82
:101AB000F3E08491882341F09091C00095FFFCCF22
:101AC0008093C6003196F5CF8091C00085FFFCCF92
:101AD0008AE08093C600FE018491ECE1F4E0882363
:101AE00049F09091C00095FFFCCF8093C6003196DD
:101AF0008491F5CF40915011509151116091521144
:101B00007091531186EE93E00E946016409154113B
:101B100050915511609156117091571183EE93E0D9
:101B20000E946016409158115091591160915A11BC
:101B300070915B1180EE93E00E94601640915C1101
:101B400050915D1160915E1170915F118DED93E088
:101B50000E9460168091C00085FFFCCF8AE08093D0
:101B6000C600FE018491ECE1F4E0882349F09091F5
:101B7000C00095FFFCCF8093C60031968491F5CFCD
:101B8000E3ECF3E08491882341F09091C00095FF4D
:101B9000FCCF8093C6003196F5CF8091C00085FFC1
:101BA000FCCF8AE08093C600FE018491ECE1F4E072
:101BB000882349F09091C00095FFFCCF8093C60028
:101BC00031968491F5CF40916011509161116091EF
:101BD0006211709163118AEB93E00E94601640914C
:101BE000641150916511609166117091671187EBD6
:101BF00093E00E94601640916811509169116091C4
:101C00006A1170916B1184EB93E00E946016409111
:101C10006C1150916D1160916E1170916F1181EB8B
:101C200093E00E9460168091C00085FFFCCF8AE09F
:101C30008093C600FE018491ECE1F4E0882349F032
:101C40009091C00095FFFCCF8093C600319684919F
:101C5000F5CFE3E9F3E08491882341F09091C0004F
:101C600095FFFCCF8093C6003196F5CF8091C000E0
:101C700085FFFCCF8AE08093C600FE018491ECE1F1
:101C8000F4E0882349F09091C00095FFFCCF809349
:101C9000C60031968491F5CF409140115091411189
:101CA00060914211709143118AE893E00E9471168D
:101CB0004091441150914511609146117091471126
:101CC00087E893E00E9471164091481150914911A4
:101CD00060914A1170914B1184E893E00E94711653
:101CE00040914C1150914D1160914E1170914F11D6
:101CF00081E893E0F6D78091C00085FFFCCF8AE0B1
:101D00008093C600FE018491ECE1F4E0882349F061
:101D10009091C00095FFFCCF8093C60031968491CE
:101D2000F5CFECE4F3E08491882341F09091C0007A
:101D300095FFFCCF8093C6003196F5CF8091C0000F
:101D400085FFFCCF8AE08093C600FE018491ECE120
:101D5000F4E0882349F09091C00095FFFCCF809378
:101D6000C60031968491F5CF4091381150913911C8
:101D700060913A1170913B1183E493E0A1D74091B7
:101D8000341150913511609136117091371180E402
:101D900093E096D78091C00085FFFCCF8AE08093C6
:101DA000C600FE018491ECE1F4E0882349F09091B3
:101DB000C00095FFFCCF8093C60031968491F5CF8B
:101DC000EDE8F2E08491882341F09091C00095FF06
:101DD000FCCF8093C6003196F5CF8091C00085FF7F
:101DE000FCCF8AE08093C600FE018491ECE1F4E030
:101DF000882349F09091C00095FFFCCF8093C600E6
:101E000031968491F5CF40913C1150913D116091F4
:101E10003E1170913F1184E892E052D74091241115
:101E200050912511609126117091271181E892E05F
:101E300047D740917011509171116091721170915A
:101E400073118EE792E04DD74091301150913111CE
:101E500060913211709133118BE792E031D740914C
:101E60002C1150912D1160912E1170912F1188E736
:101E700092E026D7409128115091291160912A11A2
:101E800070912B1185E792E01BD78091C00085FFF0
:101E9000FCCF8AE08093C600FE018491ECE1F4E07F
:101EA000882349F09091C00095FFFCCF8093C60035
:101EB00031968491F5CFE3E6F2E08491882341F0F6
:101EC0009091C00095FFFCCF8093C6003196F5CF6E
:101ED0008091C00085FFFCCF8AE08093C600FE01A0
:101EE0008491ECE1F4E0882349F09091C00095FFE3
:101EF000FCCF8093C60031968491F5CF40915C076A
:101F000050915D0760915E0770915F078AE592E0EE
:101F1000D7D6409160075091610760916207709138
:101F2000630787E592E0CCD640916407509165073E
:101F3000609166077091670784E592E0C1D6809151
:101F4000C00085FFFCCF8AE08093C600FE0184912B
:101F5000ECE1F4E0882349F09091C00095FFFCCFBC
:101F60008093C60031968491F5CFEAE3F2E0849144
:101F7000882341F09091C00095FFFCCF8093C6006C
:101F80003196F5CF8091C00085FFFCCF8AE0809329
:101F9000C600FE018491ECE1F4E0882349F09091C1
:101FA000C00095FFFCCF8093C60031968491F5CF99
:101FB000409150075091510760915207709153071B
:101FC00081E392E07DD6409154075091550760918E
:101FD0005607709157078EE292E072D640915807EB
:101FE0005091590760915A0770915B078BE292E01C
:101FF00067D68091C00085FFFCCF8AE08093C60041
:10200000FE018491ECE1F4E0882349F09091C00056
:1020100095FFFCCF8093C60031968491F5CFE9ED12
:10202000F1E08491882341F09091C00095FFFCCFAE
:102030008093C6003196F5CF8091C00085FFFCCF1C
:102040008AE08093C600FE018491ECE1F4E08823ED
:1020500049F09091C00095FFFCCF8093C600319667
:102060008491F5CF40910F025091100260911102BE
:102070007091120280ED91E023D640911F025091A1
:10208000200260912102709122028DEC91E018D61D
:102090004091060750910707609108077091090762
:1020A0008AEC91E00DD68091C00085FFFCCF8AE0DC
:1020B0008093C600FE018491ECE1F4E0882349F0AE
:1020C0009091C00095FFFCCF8093C600319684911B
:1020D000F5CFECEBF1E08491882341F09091C000C2
:1020E00095FFFCCF8093C6003196F5CF8091C0005C
:1020F00085FFFCCF8AE08093C600FE01C491ECE12D
:10210000F4E0CC2349F08091C00085FFFCCFC09360
:10211000C6003196C491F5CF40917B0250917C026C
:1021200060917D0270917E0282EB91E0C9D5609151
:102130007702709178028091790290917A020E94E0
:102140000C84AB01BC018FEA91E0BAD560917302B7
:102150007091740280917502909176020E941884A9
:10216000AB01BC018CEA91E0ABD58091C00085FF4A
:10217000FCCF8AE08093C600DF91CF910895AF92A3
:10218000BF92CF92DF92EF92FF920F931F93CF9364
:10219000DF93CDB7DEB7E0970FB6F894DEBF0FBE82
:1021A000CDBF80E1ECE9F2E0DE01919601900D9265
:1021B0008A95E1F780E1ECEAF2E0DE0151960190C8
:1021C0000D928A95E1F780E1ECEBF2E0DE011196E9
:1021D00001900D928A95E1F76E0181E2C80ED11C43
:1021E00080E5E82E81E1F82E8E010F5E1F4F60E63C
:1021F00071E1AE014F5F5F4F90E4A92E91E1B92EDE
:1022000020E030E0F60181919191A191B1916F01AF
:10221000F70181939193A193B1937F01F80181918B
:102220009191A191B1918F01FB0181939193A19320
:10223000B193BF01FA0181919191A191B191AF0147
:10224000F50181939193A193B1935F012F5F3F4F6C
:1022500024303105B9F60E94DB7280E090E8ABE3F0
:10226000B5E48093381190933911A0933A11B0934B
:102270003B118093341190933511A0933611B09394
:10228000371110923C1110923D1110923E11109294
:102290003F1180E29EE4A0E0B0E080937011909343
:1022A0007111A0937211B0937311109224111092B6
:1022B0002511109226111092271180E090E0A0EADB
:1022C000B1E48093301190933111A0933211B09307
:1022D000331180932C1190932D11A0932E11B09354
:1022E0002F1180E090E0A0EAB0E480932811909351
:1022F0002911A0932A11B0932B1110926407109208
:102300006507109266071092670710926007109297
:102310006107109262071092630710925C07109297
:102320005D0710925E0710925F0710925807109297
:10233000590710925A0710925B0710925407109297
:102340005507109256071092570710925007109297
:102350005107109252071092530780E090EFABE1C3
:10236000B5E480931F0290932002A0932102B093C2
:10237000220280E090E0AAE7B3E480930F029093FA
:102380001002A0931102B09312021092060710924D
:10239000070710920807109209079C01AD0160E041
:1023A00070EF8BE195E40E94311D84EB90E09093F7
:1023B0005C1280935B1286E490E090935A128093B3
:1023C00059128FEF90E0909358128093571220EF9C
:1023D00030E0309356122093551224E630E03093CB
:1023E00054122093531290935212809351128AE9FF
:1023F00099E9A1EBB1E480937B0290937C02A093D6
:102400007D02B0937E0261E77DE38AE89FE30E944C
:102410000684609377027093780280937902909398
:102420007A0260E070E084EE92E40E94128460938D
:1024300073027093740280937502909376020E94E7
:10244000367C80E090E0A0E8BFE380936F02909339
:102450007002A0937102B0937202ECE1F4E08491F7
:10246000882341F09091C00095FFFCCF8093C60077
:102470003196F5CFEAE8F1E08491882341F090911C
:10248000C00095FFFCCF8093C6003196F5CF8091B8
:10249000C00085FFFCCF8AE08093C600E0960FB6AF
:1024A000F894DEBF0FBECDBFDF91CF911F910F918A
:1024B000FF90EF90DF90CF90BF90AF9008951F9264
:1024C0000F920FB60F9211240BB60F922F933F93DA
:1024D0004F935F936F938F939F93EF93FF936091CD
:1024E000C60020912D0530912E05C90101968F77E8
:1024F000992740912F05509130058417950741F099
:10250000F901E355FB4F608390932E0580932D05D1
:10251000FF91EF919F918F916F915F914F913F91BB
:102520002F910F900BBE0F900FBE0F901F9018951C
:102530009A01AB01211581EE38074105510549F19A
:1025400082E08093C00060E079E08DE390E00E943B
:10255000F2AD2150310941095109CA01B90122E006
:1025600030E040E050E00E94F2AD3093C50020938F
:10257000C4008091C10080618093C1008091C1003E
:1025800088608093C1008091C10080688093C10001
:1025900008951092C00020E130E0E7CF20912F0590
:1025A0003091300580912D0590912E05821793076B
:1025B00071F0F901E355FB4F80812F5F3F4F2F777B
:1025C00033273093300520932F0590E008958FEF47
:1025D0009FEF089580912F059091300590932E05DF
:1025E00080932D0508954F925F926F927F928F9204
:1025F0009F92AF92BF92CF92DF92EF92FF920F9392
:102600001F93CF93DF93CDB7DEB7A0970FB6F894A3
:10261000DEBF0FBECDBF5C014115510561057105DF
:10262000E9F420E030E040E350E060E070E0A096A4
:102630000FB6F894DEBF0FBECDBFDF91CF911F91D3
:102640000F91FF90EF90DF90CF90BF90AF909F9051
:102650008F907F906F905F904F905BC08E010F5F67
:102660001F4FC12CD12C76014801422E512C612CD8
:10267000712C8FEFC81AD80AE80AF80ACB01BA0100
:10268000A30192010E94D0ADCA01F80161938F01AC
:10269000A901BC01411551056105710551F7F1E032
:1026A000CF1AD108E108F108F401EC0DFD1D80817D
:1026B0008A3010F440E301C047E3480F552747FD37
:1026C0005095652F752F20E030E0C50122D081E0C4
:1026D000C81AD108E108F108EFEFCE16DE06EE06C3
:1026E000FE0611F7A0960FB6F894DEBF0FBECDBF61
:1026F000DF91CF911F910F91FF90EF90DF90CF90DE
:10270000BF90AF909F908F907F906F905F904F9011
:1027100008952115310539F48091C00085FFFCCF63
:102720004093C60008952A30310509F41CC05BCFE0
:10273000CF93DF93EC0120E030E04DE050E060E02B
:1027400070E0E7DF20E030E04AE050E060E070E079
:10275000CE01DF91CF91DDCF9A01AB01662757FD06
:102760006095762FD6CFCF92DF92EF92FF92CF93E4
:10277000DF93EC016A017B0177FF0FC020E030E0BE
:102780004DE250E060E070E0C4DFF094E094D0945B
:10279000C094C11CD11CE11CF11C2AE0B701A601A8
:1027A000CE01DF91CF91FF90EF90DF90CF901BCFC4
:1027B0002115310539F48091C00085FFFCCF40938D
:1027C000C600089510CF9A01462F50E060E070E0F7
:1027D000EFCFCF93DF93EC019A01AB0160E070E0A3
:1027E000E7DFCE01DF91CF91A3CF8F929F92AF927F
:1027F000BF92CF92DF92EF92FF921F93CF93DF931E
:10280000EC016A017B01122F20E030E0A901C70131
:10281000B6010E94FFA987FF0CC020E030E04DE226
:1028200050E060E070E0CE0174DFF7FAF094F7F862
:10283000F094B12C60E070E080E09FE3B11641F0CD
:1028400020E030E040E251E40E9406AAB394F6CFC3
:102850009B01AC01C701B6010E9426A96B017C0156
:102860000E9473AA4B015C010E949FAA9B01AC01CC
:10287000C701B6010E9425A96B017C012AE0B501C0
:10288000A401CE01B0DE112361F0E9E8F4E081910A
:10289000882339F09091C00095FFFCCF8093C6004B
:1028A000F6CF112319F120E030E040E251E4C701F6
:1028B000B6010E94D4AC6B017C010E946EAA4B0150
:1028C000AA2497FCA094BA2CB501A401CE014BDF39
:1028D000C501B4010E94A1AA9B01AC01C701B601C8
:1028E0000E9425A96B017C011150DBCFDF91CF91B4
:1028F0001F91FF90EF90DF90CF90BF90AF909F908F
:102900008F90089572CFFC01659175918591949196
:1029100008952F923F924F925F926F927F928F9283
:102920009F92AF92BF92CF92DF92EF92FF920F935E
:102930001F93CF93DF9300D01F92CDB7DEB74C012A
:10294000FC01E45EF54F1491E8E5F4E084918823FE
:1029500041F09091C00095FFFCCF8093C600319666
:10296000F5CF4AE050E0B4018CEA94E0F5DEE6E50C
:10297000F4E08491882341F09091C00095FFFCCF52
:102980008093C6003196F5CF9401220F331F220F9A
:10299000331F3C832B832859384F1901F9011082CA
:1029A00011821282138224E737E040E757E06CE699
:1029B00077E088E697E00E9409728B819C81855DB3
:1029C000954FA1DF6B017C01612F772767FD709523
:1029D000872F972F0E94A1AA2B013C012B813C81BC
:1029E0002A50394F590120E030E040EC5FE3C70145
:1029F000B6010E94D4ACA30192010E94D4ACF501AF
:102A000060837183828393832B813C812C5B3D4F58
:102A10003A832983F9016081718182819381609376
:102A20000B0270930C0280930D0290930E0220E033
:102A300030E040E752E40E9406AA2CE4C22E27E0D0
:102A4000D22E7B018C0122E037E04EEF56E06AEF98
:102A500076E086EF96E00E94A8680E94CE7AF101A7
:102A6000108211821282138224E737E040E757E098
:102A70006CE677E088E697E00E9409722B813C8142
:102A8000215E354F1901C9013EDF9058A301920123
:102A90000E94D4ACF501608371838283938320E02C
:102AA00030E040E752E460910B0270910C0280919B
:102AB0000D0290910E020E9406AA7B018C0122E079
:102AC00037E04EEF56E06AEF76E086EF96E00E9440
:102AD000A8680E94CE7AC10116DF9B01AC010E945A
:102AE00026A9A30192010E94D4ACF50160837183F1
:102AF0008283938320E030E040E251E4E981FA816F
:102B000060817181828193810E9406AA60930B0289
:102B100070930C0280930D0290930E0220E030E03F
:102B200040E752E40E9406AA7B018C0122E037E0D4
:102B30004EEF56E06AEF76E086EF96E00E94A868D6
:102B40000E94CE7A0B811C81005B184FF801208116
:102B5000318142815381C301B2010E94D4AC20E093
:102B600030E0A9010E94FFA987FF30C024E737E0C9
:102B700040E757E06CE677E088E697E00E9409724C
:102B8000F80180819181A281B381F50180839183D5
:102B9000A283B38320E030E040E752E460910B026F
:102BA00070910C0280910D0290910E020E9406AA73
:102BB0007B018C0122E037E04EEF56E06AEF76E0D1
:102BC00086EF96E00E94A8680E94CE7A8B819C8155
:102BD000895C954F98DE2B813C812859384F7901CB
:102BE0000B811C81045A184FF801208131814281E8
:102BF00053810E9426A9F7016083718382839383A6
:102C00008B819C81815B954F7EDE2B813C81205D99
:102C10003D4F6901F80120813181428153810E9439
:102C200026A9F60160837183828393838B819C81C3
:102C30008D5B954F68DE2B813C812C5D3D4F69019A
:102C4000F80120813181428153810E9426A9F60139
:102C500060837183828393832B813C812A50394F17
:102C6000F70180819181A281B381F90180839183F1
:102C7000A283B38310920B0210920C0210920D02E9
:102C800010920E020E94BE73F401E35BF84F81E0E4
:102C900080830F900F900F900F90DF91CF911F9135
:102CA0000F91FF90EF90DF90CF90BF90AF909F90EB
:102CB0008F907F906F905F904F903F902F900895EE
:102CC000FC012491222341F03091C00035FFFCCF5C
:102CD0002093C6000196F4CF22E030E08CEA94E025
:102CE00011CEFC012491222341F03091C00035FF28
:102CF000FCCF2093C6000196F4CF2AE030E08CEAA6
:102D000094E056CDCF93DF931F921F92CDB7DEB7DD
:102D100080915013909151139E012F5F3F4F009768
:102D200019F42655334102C0281B390B3A832983F5
:102D300089819A810F900F90DF91CF910895209112
:102D40004B0530914C05243031050CF06AC04091A0
:102D50004D0550914E0560E6649F9001659F300DD2
:102D60001124BC01C9018B5A9A4F0E9454B1EBE562
:102D7000FAE08491882341F09091C00095FFFCCF48
:102D80008093C6003196F5CFE1E1FAE08491882383
:102D900041F09091C00095FFFCCF8093C600319622
:102DA000F5CF80914D0590914E0520E6289FF001CA
:102DB000299FF00D1124EB5AFA4F8191882339F0A5
:102DC0009091C00095FFFCCF8093C600F6CFEFE056
:102DD000FAE08491882341F09091C00095FFFCCFE8
:102DE0008093C6003196F5CF8091C00085FFFCCF5F
:102DF0008AE08093C60080914D0590914E05019622
:102E000064E070E00E94BDAD90934E0580934D0547
:102E100080914B0590914C05019690934C058093C1
:102E20004B05089520914B0530914C052430310518
:102E30000CF06AC040914D0550914E0560E6649FCC
:102E40009001659F300D1124BC01C9018B5A9A4F26
:102E50000E94E0B0EBE5FAE08491882341F0909184
:102E6000C00095FFFCCF8093C6003196F5CFE4E01B
:102E7000FAE08491882341F09091C00095FFFCCF47
:102E80008093C6003196F5CF80914D0590914E0507
:102E900020E6289FF001299FF00D1124EB5AFA4FEC
:102EA0008191882339F09091C00095FFFCCF8093E9
:102EB000C600F6CFE2E0FAE08491882341F09091D9
:102EC000C00095FFFCCF8093C6003196F5CF80916E
:102ED000C00085FFFCCF8AE08093C60080914D053D
:102EE00090914E05019664E070E00E94BDAD909314
:102EF0004E0580934D0580914B0590914C050196B0
:102F000090934C0580934B05089560E089E20E9400
:102F1000B6A8A09A0895269A2E98089580914505FE
:102F20009091460560E070E001960C9437AE809178
:102F30004505909146054AE050E060E070E001965A
:102F40000C949FAF682F772767FD709520914F05F0
:102F50003091500540E6429FC001439F900D1124DF
:102F60008B5A9A4F0E9449B190934605809345052C
:102F700021E0892B09F420E0822F08950E94CDA63C
:102F800060934105709342058093430590934405F7
:102F900008950E94CDA660934105709342058093E9
:102FA000430590934405E0914F05F0915005EF5A89
:102FB000FA4F8081811114C0EAE4F4E084918823FF
:102FC00041F09091C00095FFFCCF8093C6003196F0
:102FD000F5CF8091C00085FFFCCF8AE08093C600CA
:102FE00008958CEA94E0F6DAEDE4F4E08491882325
:102FF00041F09091C00095FFFCCF8093C6003196C0
:10300000F5CF4091DA065091DB066091DC067091B5
:10301000DD064F5F5F4F6F4F7F4F2AE030E08CEA55
:1030200094E077DB8091C00085FFFCCF8AE080933D
:10303000C600AFCF2F923F924F925F926F927F92D6
:103040008F929F92AF92BF92CF92DF92EF92FF92B8
:103050000F931F93CF93DF93CDB7DEB76E970FB665
:10306000F894DEBF0FBECDBF60E6962E04E010E000
:1030700076E9E72E77E0F72EEAE08E2EFCE0CF2E01
:10308000F8E0DF2E7724739480912D0590912E0522
:1030900020912F0530913005821B930B8F77992754
:1030A000892B09F420C280914B0590914C0504971F
:1030B0000CF019C28CEA94E071DA80934A052091F1
:1030C0004805309149058A3061F08D3051F08A33DE
:1030D00021F490914705992321F02F3531050CF407
:1030E00027C12115310509F441C180914D05909109
:1030F0004E05989E5001999EB00C1124F501E20FE7
:10310000F31FEB5AFA4F10822091470521110BC192
:10311000FC01EF5AFA4F108295012B5A3A4F1901D0
:103120006EE470E0C9010E9449B10097E9F1909303
:10313000460580934505821993098A0D9B1D4AE037
:1031400050E060E070E08A5A9A4F0E949FAF60930F
:10315000DE067093DF068093E0069093E1062091EF
:10316000DA063091DB064091DC065091DD062F5FD8
:103170003F4F4F4F5F4FA0904D05B0904E056217E7
:1031800073078407950709F4F4C09A9CC0019B9CBF
:10319000900D112465EB78E08B5A9A4F0E940EB186
:1031A000892B09F0E6C073C16AE270E0C1010E9498
:1031B00049B1892B09F443C0E1E6FAE08491882300
:1031C00041F09091C00095FFFCCF8093C6003196EE
:1031D000F5CFEFE0F8E08491882341F09091C000B2
:1031E00095FFFCCF8093C6003196F5CF4091DA066B
:1031F0005091DB066091DC067091DD062AE030E03C
:103200008CEA94E086DA8091C00085FFFCCF8AE0EA
:103210008093C6001092490510924805CAC2809159
:10322000DE069091DF06A091E006B091E106809362
:10323000DA069093DB06A093DC06B093DD0680915E
:103240004D0590914E05989E5001999EB00C112409
:10325000C5018B5A9A4F1C0167E470E00E9449B186
:10326000009709F44BC09093460580934505821959
:1032700093098A0D9B1D60E070E08A5A9A4F0E9464
:1032800037AE0E946EAA6430710508F037C0809195
:10329000330581111AC080917E0781112FC0F6017C
:1032A0008491ECE0F8E0882349F09091C00095FF0C
:1032B000FCCF8093C60031968491F5CF8091C000F9
:1032C00085FFFCCF8092C60019C0F7018491E6E922
:1032D000F7E0882349F09091C00095FFFCCF8093E0
:1032E000C60031968491F5CF8091C00085FFFCCF58
:1032F0008092C6008CE897E00E941B8D80914D055E
:1033000090914E050196B8010E94BDAD90934E0577
:1033100080934D0580914B0590914C0501969093BB
:103320004C0580934B051092490510924805ACCE90
:103330008B3311F470924705909147059111A4CEFB
:1033400040914D0550914E05B9016F5F7F4F7093CD
:10335000490560934805949EF001959EF00D112457
:10336000E20FF31FEB5AFA4F80838ECE109247057F
:1033700020C29A9C10019B9C300C1124C1018B5AD5
:103380009A4F5C016AE270E00E9449B1009781F5B2
:10339000E1E6FAE08491882341F09091C00095FF26
:1033A000FCCF8093C6003196F5CFE9E3F8E0849135
:1033B000882341F09091C00095FFFCCF8093C60018
:1033C0003196F5CF4091DA065091DB066091DC062C
:1033D0007091DD062AE030E08CEA94E09AD9809181
:1033E000C00085FFFCCF8AE08093C600FADD12CFD3
:1033F00020E0612CF101E20FF11DEB5AFA4F308110
:103400003A3219F02F5F6326F5CF909346058093EB
:1034100045058A199B09820D931D60E070E08A5A68
:103420009A4F0E9437AE0E946EAA262D30E02617D2
:10343000370709F4F4CEE1E6FAE08491882341F0FD
:103440009091C00095FFFCCF8093C6003196F5CFD8
:10345000E3E6F8E08491882341F09091C00095FF65
:10346000FCCF8093C6003196F5CF4091DA0650919B
:10347000DB066091DC067091DD062AE030E08CEA24
:1034800094E047D98091C00085FFFCCFACCFE1E646
:10349000FAE08491882341F09091C00095FFFCCF21
:1034A0008093C6003196F5CFE2E8F8E08491882356
:1034B00041F09091C00095FFFCCF8093C6003196FB
:1034C000F5CF4091DA065091DB066091DC067091F1
:1034D000DD062AE030E08CEA94E01BD98091C00040
:1034E00085FFFCCF80CF80918007882309F461C1DC
:1034F0008091480590914905892B09F05AC1809126
:103500004B0590914C05892B11F41092310548EE32
:10351000242E43E0342E412C512C5CE3C52ED12CBB
:10352000E12CF12C8E010F5F1F4F30E6632E7724C4
:1035300073944091010A5091020A6091030A7091BC
:10354000040A8091F9099091FA09A091FB09B091C0
:10355000FC09481759076A077B0708F02AC18091C0
:103560004B0590914C0504970CF023C180913105D7
:1035700081111FC18091540990915509A09156095C
:10358000B09157098093010A9093020AA093030A0D
:10359000B093040A8CE499E00E94B641482F8093CE
:1035A0004A058A30B9F04D30A9F0433229F4209110
:1035B0004705211103C00EC04A33C9F320914805C5
:1035C000309149052F3531052CF48F3FFFEF9F07D0
:1035D00009F0D1C04091010A5091020A6091030A9A
:1035E0007091040A8091F9099091FA09A091FB0960
:1035F000B091FC09481759076A077B0708F481C096
:10360000E9E7F7E08491882341F09091C00095FFAD
:10361000FCCF8093C6003196F5CF8091C00085FF26
:10362000FCCFFAE0F093C6000E94CDA6609335056A
:10363000709336058093370590933805809039054F
:1036400090903A05A0903B05B0903C056819790927
:103650008A099B09A20191010E94D0AD49015A013A
:10366000CA01B901A70196010E94D0ADCA01B901F2
:10367000A70196010E94D0AD7F936F93C501B4015D
:1036800020E13EE040E050E00E94D0AD3F932F9318
:10369000A5E6B7E0BF93AF931F930F930E9478B155
:1036A000EBE5FAE084910FB6F894DEBF0FBECDBF14
:1036B000882349F09091C00095FFFCCF8093C6000D
:1036C00031968491F5CFF8018191882339F090915A
:1036D000C00095FFFCCF8093C600F6CF8091C0005C
:1036E00085FFFCCF3AE03093C600C8010E940C8DE4
:1036F0008EE797E00E94395661E08EE797E00E94DE
:10370000305580914A05833211F470923105209131
:103710004805309149052115310509F427CE8091DE
:103720004D0590914E05689EF001699EF00D1124A3
:10373000E20FF31FEB5AFA4F1082FC01EF5AFA4FD7
:10374000708220914B0530914C052F5F3F4F309395
:103750004C0520934B05019664E070E00E94BDADDE
:1037600090934E0580934D051092470510924905A0
:1037700010924805DECE4B3311F47092470540910C
:1037800047054111D2CE40914D0550914E05B901EA
:103790006F5F7F4F7093490560934805649EF00109
:1037A000659EF00D1124E20FF31FEB5AFA4F808350
:1037B000C0CE6E960FB6F894DEBF0FBECDBFDF91C0
:1037C000CF911F910F91FF90EF90DF90CF90BF901E
:1037D000AF909F908F907F906F905F904F903F90B1
:1037E0002F9008958F929F92AF92BF92CF92DF92C7
:1037F000EF92FF920F931F93CF93DF93A9E1EA2EED
:10380000A4E0FA2E08E617E0C6EFD6E0BAE7CB2E22
:10381000B7E0DB2EF70181917F0194DB882311F162
:103820007DDB4B015C01F6018081811103C0609159
:10383000D50601C061E070E080E090E00E94A1AA9E
:10384000F80120813181428153810E94D4AC9B01D7
:10385000AC01C501B4010E9426A9688379838A83DB
:103860009B8309C0F80180819181A281B381888303
:103870009983AA83BB830C5F1F4F2496FFEFCF1A57
:10388000DF0A8DE1E81684E0F80621F686E45ADBCB
:103890008823D1F043DB6B017C016093E6067093D3
:1038A000E7068093E8069093E90620E030E0A9015E
:1038B0000E9402AC181644F4C0920B02D0920C0283
:1038C000E0920D02F0920E02DF91CF911F910F91C5
:1038D000FF90EF90DF90CF90BF90AF909F908F9030
:1038E000089580DF89E42EDB882351F017DB609395
:1038F000EA067093EB068093EC069093ED0608C001
:103900001092EA061092EB061092EC061092ED0669
:103910008AE418DB882351F001DB6093EE06709394
:10392000EF068093F0069093F10608951092EE064C
:103930001092EF061092F0061092F1060895CF92C1
:10394000DF92EF92FF92CF93DF93EC01C0903002B1
:10395000D0903102E0903202F0903302A70196013C
:10396000688179818A819B810E94FFA987FF04C0B9
:10397000C882D982EA82FB82C0903402D09035029C
:10398000E0903602F0903702A70196016C817D81AC
:103990008E819F810E94FFA987FF04C0CC82DD82B7
:1039A000EE82FF82C0903802D0903902E0903A0255
:1039B000F0903B02A7019601688579858A859B85F1
:1039C0000E94FFA987FF04C0C886D986EA86FB86C5
:1039D000C0902402D0902502E0902602F0902702A9
:1039E000A7019601688179818A819B810E9402AC3E
:1039F000181624F4C882D982EA82FB82C090280279
:103A0000D0902902E0902A02F0902B02A7019601A3
:103A10006C817D818E819F810E9402AC181624F4F6
:103A2000CC82DD82EE82FF82C0902C02D0902D02EB
:103A3000E0902E02F0902F02A7019601688579850B
:103A40008A859B850E9402AC181624F4C886D98604
:103A5000EA86FB86DF91CF91FF90EF90DF90CF90C9
:103A600008954F925F926F927F928F929F92AF9242
:103A7000BF92CF92DF92EF92FF926B017C014901DE
:103A80005A0127ED33EB4DE55FEB0E94D4AC609318
:103A90003A0770933B0780933C0790933D0720E0E3
:103AA00030E040E05FEBC701B6010E94D4AC2B01CF
:103AB0003C016093360770933707809338079093E3
:103AC000390727ED33EB4DE55FE3C701B6010E94EF
:103AD000D4AC60933207709333078093340790938C
:103AE000350740922E0750922F0760923007709250
:103AF000310710922A0710922B0710922C07109270
:103B00002D07C0922607D0922707E0922807F0924F
:103B10002907A5019401C501B4010E94D4AC6093AA
:103B20000A0770930B0780930C0790930D07C090C2
:103B30001F02D0902002E0902102F090220227ED97
:103B400033EB4DE55FEBC701B6010E94D4AC609347
:103B5000220770932307809324079093250720E082
:103B600030E040E05FEBC701B6010E94D4AC4B01EE
:103B70005C0160931E0770931F078093200790934A
:103B8000210727ED33EB4DE55FE3C701B6010E9446
:103B9000D4AC60931A0770931B0780931C07909313
:103BA0001D078092160790921707A0921807B092EF
:103BB000190710921207109213071092140710920F
:103BC0001507C0920E07D0920F07E0921007F092EF
:103BD0001107FF90EF90DF90CF90BF90AF909F9034
:103BE0008F907F906F905F904F9008954F925F926B
:103BF0006F927F928F929F92AF92BF92CF92DF92FD
:103C0000EF92FF920F931F93CF93DF93CDB7DEB761
:103C100028970FB6F894DEBF0FBECDBF8C01DC0134
:103C20001896CD90DD90ED90FC901B97A701960122
:103C300060911B0270911C0280911D0290911E02E6
:103C40000E9425A92B013C01F8012081318142818C
:103C500053816091220770912307809124079091EE
:103C600025070E9425A94B015C01D80114968D916E
:103C70009D910D90BC91A02D89839A83AB83BC83C9
:103C80009C01AD0160911E0770911F078091200774
:103C9000909121070E9425A96D837E838F83988749
:103CA000A3019201C301B2010E94D4AC2B013C01DB
:103CB000A5019401C501B4010E94D4AC9B01AC01E3
:103CC000C301B2010E9426A94B015C012D813E81F6
:103CD0004F815885CA01B9010E94D4AC9B01AC0147
:103CE000C501B4010E9426A90E9441AD60933E0720
:103CF00070933F078093400790934107A701960177
:103D000060911702709118028091190290911A0225
:103D10000E9425A92B013C01F801208131814281BB
:103D2000538160911A0770911B0780911C07909135
:103D30001D070E9425A94B015C0129813A814B8115
:103D40005C81609116077091170780911807909118
:103D500019070E9425A969837A838B839C83A30119
:103D60009201C301B2010E94D4AC2B013C01A50118
:103D70009401C501B4010E94D4AC9B01AC01C30104
:103D8000B2010E9426A94B015C0129813A814B8135
:103D90005C81CA01B9010E94D4AC9B01AC01C50190
:103DA000B4010E9426A90E9441AD6093420770931E
:103DB00043078093440790934507A70196016091BC
:103DC00013027091140280911502909116020E94C4
:103DD00025A92B013C01D8012D913D914D915C917C
:103DE0006091120770911307809114079091150745
:103DF0000E9425A94B015C01F8012481358146818F
:103E0000578160910E0770910F0780911007909174
:103E100011070E9425A96B017C01A3019201C30136
:103E2000B2010E94D4AC2B013C01A5019401C50153
:103E3000B4010E94D4AC9B01AC01C301B2010E9449
:103E400026A94B015C01A7019601C701B6010E949A
:103E5000D4AC9B01AC01C501B4010E9426A90E940B
:103E600041AD60934607709347078093480790934E
:103E7000490728960FB6F894DEBF0FBECDBFDF917D
:103E8000CF911F910F91FF90EF90DF90CF90BF9057
:103E9000AF909F908F907F906F905F904F9008951C
:103EA000CF93DF9300D01F92CDB7DEB72ED833D893
:103EB00040E052EC61E070E08CEA94E00E949812DD
:103EC000E1EFF9E08491882341F09091C00095FFE3
:103ED000FCCF8093C6003196F5CF8091C00085FF5E
:103EE000FCCF8AE08093C6008BE59AE0FC01249128
:103EF000222341F03091C00035FFFCCF2093C60053
:103F00003196F5CF24B720FF14C0E9EEF9E03491E3
:103F1000332341F04091C00045FFFCCF3093C600F1
:103F20003196F5CF3091C00035FFFCCF3AE03093A9
:103F3000C60021FF14C0E9EDF9E03491332341F0CC
:103F40004091C00045FFFCCF3093C6003196F5CFBD
:103F50003091C00035FFFCCF3AE03093C60022FF1D
:103F600014C0E8ECF9E03491332341F04091C000F3
:103F700045FFFCCF3093C6003196F5CF3091C0009D
:103F800035FFFCCF3AE03093C60023FF14C0E8EBC6
:103F9000F9E03491332341F04091C00045FFFCCF5C
:103FA0003093C6003196F5CF3091C00035FFFCCF7D
:103FB0003AE03093C60025FF14C0E8EAF9E0249106
:103FC000222341F03091C00035FFFCCF2093C60082
:103FD0003196F5CF2091C00025FFFCCF2AE0209339
:103FE000C60014BEE1EAF9E02491222341F03091A9
:103FF000C00035FFFCCF2093C6003196F5CFEBE92A
:10400000F9E02491222341F03091C00035FFFCCF2C
:104010002093C6003196F5CF2091C00025FFFCCF3C
:104020002AE02093C600FC012491EBE5FAE022236C
:1040300049F03091C00035FFFCCF2093C600319687
:104040002491F5CFEBE8F9E02491222341F030915F
:10405000C00035FFFCCF2093C6003196F5CFE6E7D0
:10406000F9E02491222341F03091C00035FFFCCFCC
:104070002093C6003196F5CFEAE6F9E02491222399
:1040800041F03091C00035FFFCCF2093C60031963F
:10409000F5CFEFE3F9E02491222341F03091C00005
:1040A00035FFFCCF2093C6003196F5CF2091C0009C
:1040B00025FFFCCF2AE02093C600E4E3F9E0249139
:1040C000222341F03091C00035FFFCCF2093C60081
:1040D0003196F5CFE8E2F9E02491222341F03091C6
:1040E000C00035FFFCCF2093C6003196F5CF20915C
:1040F000C00025FFFCCF2AE02093C600FC0184917C
:10410000EBE5FAE0882349F09091C00095FFFCCFE1
:104110008093C60031968491F5CFE9E1F9E084916E
:10412000882341F09091C00095FFFCCF8093C6009A
:104130003196F5CF0E9482164AE050E0BC018CEA2D
:1041400094E00E94AC13E2E0F9E08491882341F00E
:104150009091C00095FFFCCF8093C6003196F5CFBB
:104160004AE050E060ED74E08CEA94E00E94AC1309
:104170008091C00085FFFCCF8AE08093C60010923A
:1041800051051092520510925305109254050E9449
:10419000BF100E94DD0C0E94F97D0E947B5D0E9491
:1041A0004B7A0E94998DFFEF23ED80E3F150204080
:1041B0008040E1F700C00000EDEDF8E08491882335
:1041C00041F09091C00095FFFCCF8093C6003196DE
:1041D000F5CF4091F6065091F7066091F806709180
:1041E000F90622E030E08CEA94E00E948214E9EDC6
:1041F000F8E08491882341F09091C00095FFFCCFB6
:104200008093C6003196F5CF4091FA065091FB0697
:104210006091FC067091FD0622E030E08CEA94E0AB
:104220000E948214E5EDF8E08491882341F090919A
:10423000C00095FFFCCF8093C6003196F5CF40912A
:10424000FE065091FF06609100077091010722E081
:1042500030E08CEA94E00E948214E3EDF8E084916F
:10426000882341F09091C00095FFFCCF8093C60059
:104270003196F5CF61E086EF96E0B8DC19821A82BC
:104280001B821C829E012F5F3F4F46E457E062E491
:1042900077E08EE397E00E9409720F900F900F90E5
:1042A0000F90DF91CF9108952F923F924F925F929E
:1042B0006F927F928F929F92AF92BF92CF92DF9236
:1042C000EF92FF920F931F93CF93DF93CDB7DEB79B
:1042D00066970FB6F894DEBF0FBECDBF86EF96E0AF
:1042E0002EDB0E94CDA6609341057093420580931A
:1042F000430590934405CE0101967C0198E6C92EB2
:1043000097E0D92E06EF16E0D8016D917D918D9141
:104310009D918D01F60121913191419151916F0152
:104320000E9425A9D7016D937D938D939D937D0167
:10433000B7E006301B0741F769817A818B819C8148
:104340008D809E80AF80B884C984DA84EB84FC843D
:104350009B01AC010E94D4AC2B013C01A50194014E
:10436000C501B4010E94D4AC9B01AC01C301B201F0
:104370000E9426A94B015C01A7019601C701B60165
:104380000E94D4AC9B01AC01C501B4010E9426A9D6
:104390000E9441AD6B017C012DEB37E346E855E30C
:1043A0000E94FFA987FF11C0CD84DE84EF84F888C6
:1043B00020E030E0A901C701B6010E9402AC181646
:1043C00024F0F7FAF094F7F8F0942DEB37E346E891
:1043D00055E3C701B6010E94FFA987FD00C120E097
:1043E00030E84BEB55E4C701B6010E94D4AC2091F4
:1043F0000B0230910C0240910D0250910E020E946E
:1044000006AA6B017C0160914202709143028827E9
:1044100077FD8095982F0E94A1AA9B01AC01C7014E
:10442000B6010E9406AA2091060730910707409125
:104430000807509109070E94D4AC0E946EAA4B0154
:10444000161617061CF088248394912CAA24A39492
:10445000B12CC401AA2797FDA095BA2F8B8B9C8BFA
:10446000AD8BBE8BB501882777FD8095982F0E9474
:10447000A1AA6B017C016B897C898D899E890E9430
:10448000A1AA9B01AC01C701B6010E9406AA2B019B
:104490003C01A6EFB6E0BA8BA98BFE0131961F0155
:1044A00008E617E0D801CD90DD90ED90FD908D01EC
:1044B000F10161917191819191911F01A30192018B
:1044C0000E94D4AC9B01AC01C701B6010E9426A991
:1044D000A989BA896D937D938D939D93BA8BA98B8E
:1044E000B7E008371B07F1F66A2D86EF96E07EDB12
:1044F0006091420270914302882777FD8095982F42
:104500000E94A1AA20910B0230910C0240910D0251
:1045100050910E020E94D4AC20E030E040E752E41B
:104520000E9406AA20E030E048EC52E40E9406AA6D
:104530001CE4C12E17E0D12E7B018C0122E037E074
:1045400046E457E062E477E08EE397E00E94A868D3
:10455000EFEFAE1ABE0A8A149B040CF083CF809151
:10456000F6069091F706A091F806B091F9068093AF
:10457000680790936907A0936A07B0936B078091CF
:10458000FA069091FB06A091FC06B091FD0680937F
:104590006C0790936D07A0936E07B0936F0780919F
:1045A000FE069091FF06A0910007B091010780934D
:1045B000700790937107A0937207B093730780916F
:1045C000020790910307A0910407B091050780931B
:1045D000740790937507A0937607B0937707669654
:1045E0000FB6F894DEBF0FBECDBFDF91CF911F9104
:1045F0000F91FF90EF90DF90CF90BF90AF909F9082
:104600008F907F906F905F904F903F902F90089584
:10461000AF92BF92CF92DF92EF92FF920F931F93D0
:10462000CF93DF93D82F2091EE063091EF06409183
:10463000F0065091F1066091EA067091EB068091C8
:10464000EC069091ED060E940FACC62F172F082F95
:10465000F92E6091420270914302882777FD809580
:10466000982F0E94A1AA20910B0230910C02409138
:104670000D0250910E020E94D4AC20E030E040E7E1
:1046800052E40E9406AA20E030E048EC52E40E9486
:1046900006AA20914C072F93DF93FF920F931F934D
:1046A000CF935B016C0122E0E22E01E020E04AEEB4
:1046B00056E066EF76E088E697E00E94B456809177
:1046C000F6069091F706A091F806B091F90680934E
:1046D000680790936907A0936A07B0936B0780916E
:1046E000FA069091FB06A091FC06B091FD0680931E
:1046F0006C0790936D07A0936E07B0936F0780913E
:10470000FE069091FF06A0910007B09101078093EB
:10471000700790937107A0937207B093730780910D
:10472000020790910307A0910407B09105078093B9
:10473000740790937507A0937607B09377070E944C
:10474000CDA66093410570934205809343059093F5
:1047500044050F900F900F900F900F900F90DF91E6
:10476000CF911F910F91FF90EF90DF90CF90BF906E
:10477000AF900895F8940E94837E5F9A10924D073F
:104780008A9A10924E079FB7F89480910801816031
:10479000809308019FBF10924F07129A60E08CE04F
:1047A0000E94B6A8E1E6FAE08491882341F0909156
:1047B000C00095FFFCCF8093C6003196F5CFEBE2A9
:1047C000F4E08491882341F09091C00095FFFCCFE4
:1047D0008093C6003196F5CF8091C00085FFFCCF55
:1047E0008AE08093C60082E294E00E942A8DFFCF87
:1047F000CF92DF92EF92FF920F931F930E94CDA66C
:1048000000913D0510913E0520913F0530914005F6
:10481000C0904105D0904205E0904305F0904405DA
:104820006C197D098E099F09061717072807390794
:1048300028F4012B022B032B09F09CDF8091070247
:1048400090910802A0910902B0910A02892B8A2B4B
:104850008B2B09F10E94CDA60091410510914205D4
:104860002091430530914405601B710B820B930B23
:1048700000910702109108022091090230910A026A
:10488000061717072807390730F490911E0C8091FE
:104890001D0C981751F0909BD0CF1F910F91FF9056
:1048A000EF90DF90CF900C94C45E5F9A10924D070A
:1048B0008A9A10924E079FB7F89480910801816000
:1048C000809308019FBF10924F07129AE4CFCF93B5
:1048D000DF93EC0180914C078093340584E50E94BE
:1048E000A217811102C080E065C00E948E170E944D
:1048F00073AA609334056623B1F3EBE5FAE0849183
:10490000882341F09091C00095FFFCCF8093C600B2
:104910003196F5CFC936D10599F034F4C836D105B2
:10492000C9F5E1E5F3E015C0CD36D10531F0CA3D5A
:10493000D10581F5ECE0F3E02AC0E3E2F3E01DC02D
:10494000EAE3F3E010C09091C00095FFFCCF8093A4
:10495000C60081918111F7CF1DC09091C00095FFD5
:10496000FCCF8093C60081918111F7CF13C0909145
:10497000C00095FFFCCF8093C60081918111F7CFD5
:1049800009C09091C00095FFFCCF8093C600819133
:104990008111F7CF40E050E0609134058CEA94E05B
:1049A0000E94E3138091C00085FFFCCF8AE08093D2
:1049B000C60081E0DF91CF9108953F924F925F92C0
:1049C0006F927F928F929F92AF92BF92CF92DF921F
:1049D000EF92FF920F931F93CF93DF93CDB7DEB784
:1049E000EC970FB6F894DEBF0FBECDBF87E40E94F0
:1049F000A217882309F4E6C40E948E170E946EAAAB
:104A00006530710509F494C08CF462307105B9F118
:104A100024F477FF2BC00C94D33963307105B9F1BE
:104A20006430710509F43DC00C94D3396C317105C3
:104A300009F4A2C254F46630710509F40DC267305E
:104A4000710509F418C20C94D3396B35710509F45A
:104A5000E8C36C35710509F4E9C36A35710511F0D5
:104A60000C94D3391092D5060C94D3398091330528
:104A7000811105C00E94F21B17DC0C945A3B8091F7
:104A80003305811104C00E94711C81E007C0809130
:104A90003305811106C00E94711C80E0B9DD0C94C1
:104AA0005A3B8CE597E00E941B8D80E50E94A2177F
:104AB000882339F00E948E170E9473AA4B015C0173
:104AC00003C0812C912C540183E50E94A2178823F6
:104AD00061F00E948E1720E030E04AE754E40E9423
:104AE000D4AC0E9473AA4B015C010E94CE7A0E9452
:104AF000CDA66B017C01C80CD91CEA1CFB1C0E94D2
:104B0000CDA6609341057093420580934305909331
:104B100044050E94CDA66C157D058E059F0510F0FD
:104B20000C94D3390E94587C63DE0E94BF8DF1CF74
:104B3000E2E5F7E08491882341F09091C00095FF71
:104B4000FCCF8093C6003196F5CFE4E4F7E0849182
:104B5000882341F09091C00095FFFCCF8093C60060
:104B60003196F5CFE0E3F7E08491882341F090910E
:104B7000C00095FFFCCF8093C6003196F5CF4091E1
:104B800068075091690760916A0770916B0722E08E
:104B900030E08CEA94E00E948214ECE2F7E0849129
:104BA000882341F09091C00095FFFCCF8093C60010
:104BB0003196F5CF40916C0750916D0760916E076B
:104BC00070916F0722E030E08CEA94E00E9482143A
:104BD000E8E2F7E08491882341F09091C00095FFCE
:104BE000FCCF8093C6003196F5CF4091700750916D
:104BF0007107609172077091730722E030E08CEAD0
:104C000094E00E948214E6E2F7E08491882341F068
:104C10009091C00095FFFCCF8093C6003196F5CFF0
:104C2000E7E1F7E08491882341F09091C00095FF7F
:104C3000FCCF8093C6003196F5CF4091F606509197
:104C4000F7066091F8067091F90622E030E08CEAF0
:104C500094E00E948214E3E1F7E08491882341F01C
:104C60009091C00095FFFCCF8093C6003196F5CFA0
:104C70004091FA065091FB066091FC067091FD068A
:104C800022E030E08CEA94E00E948214EFE0F7E04A
:104C90008491882341F09091C00095FFFCCF8093D0
:104CA000C6003196F5CF4091FE065091FF06609107
:104CB00000077091010722E030E08CEA94E00E9446
:104CC0008214EDE0F7E08491882341F09091C000D8
:104CD00095FFFCCF8093C6003196F5CFE1E0F7E079
:104CE0008491882341F09091C00095FFFCCF809380
:104CF000C6003196F5CF4091041150910511609195
:104D00000611709107112AE030E08CEA94E00E94CD
:104D10008913EDEFF6E08491882341F09091C00073
:104D200095FFFCCF8093C6003196F5CF40910811D6
:104D30005091091160910A1170910B112AE030E035
:104D40008CEA94E00E948913E9EFF6E084918823CD
:104D500041F09091C00095FFFCCF8093C600319642
:104D6000F5CF40910C1150910D1160910E11709181
:104D70000F112AE030E08CEA94E00E948913E7EFFB
:104D8000F6E08491882341F09091C00095FFFCCF1C
:104D90008093C6003196F5CFEEEEF6E0849188233D
:104DA00041F09091C00095FFFCCF8093C6003196F2
:104DB000F5CF40913E0750913F07609140077091B9
:104DC000410722E030E08CEA94E00E948214EAEE8F
:104DD000F6E08491882341F09091C00095FFFCCFCC
:104DE0008093C6003196F5CF40914207509143071A
:104DF000609144077091450722E030E08CEA94E02E
:104E00000E948214E6EEF6E08491882341F09091AE
:104E1000C00095FFFCCF8093C6003196F5CF40913E
:104E2000460750914707609148077091490722E073
:104E300030E08CEA94E00E948214E4EEF6E0849183
:104E4000882311F40C94D3399091C00095FFFCCFC6
:104E50008093C6003196F3CFE4ECF6E0849188238A
:104E600011F40C94D3399091C00095FFFCCF80933E
:104E7000C6003196F3CF81E40E94A2178823C9F0BF
:104E80000E948E176B017C01E0ECF6E08491882390
:104E900041F09091C00095FFFCCF8093C600319601
:104EA000F5CF22E030E0B701A6018CEA94E00E9441
:104EB000821482E40E94A2178823C9F00E948E17F0
:104EC0004B015C01ECEBF6E08491882341F090917A
:104ED000C00095FFFCCF8093C6003196F5CF22E04D
:104EE00030E0B501A4018CEA94E00E94821483E4CE
:104EF0000E94A2178823C9F00E948E172B013C0143
:104F0000E8EBF6E08491882341F09091C00095FF92
:104F1000FCCF8093C6003196F5CF22E030E0B3019C
:104F2000A2018CEA94E00E94821419821A821B82E8
:104F30001C824F8E58A269A27AA28FA698AAA9AA0B
:104F4000BAAACBAADCAAEDAAFEAAFCE4CF2EF7E00F
:104F5000DF2EE12CF12C08E412E49E012F5F3F4F7D
:104F6000AE01415E5F4FBE01615D7F4FCE01C396D2
:104F70000E94A8680C94D33980910B0290910C0286
:104F8000A0910D02B0910E028093E2069093E30689
:104F9000A093E406B093E50680914202909143020B
:104FA000909379078093780784E690E0909343028A
:104FB000809342020E94CDA6609341057093420502
:104FC000809343059093440581E00E94C5738091CE
:104FD000680790916907A0916A07B0916B07809369
:104FE000F6069093F706A093F806B093F906809121
:104FF0006C0790916D07A0916E07B0916F07809339
:10500000FA069093FB06A093FC06B093FD068091F0
:10501000700790917107A0917207B0917307809308
:10502000FE069093FF06A0930007B09301078091BE
:10503000740790917507A0917607B09177078093D8
:10504000020790930307A0930407B09305071092FB
:105050000B0210920C0210920D0210920E0210928E
:1050600068071092690710926A0710926B071092F6
:105070006C0710926D0710926E0710926F071092D6
:10508000700710927107109272071092730724E74D
:1050900037E040E757E06CE677E088E697E00E946B
:1050A000097280E090E8ABEBB5E48093F60690934C
:1050B000F706A093F806B093F9068093FA0690934A
:1050C000FB06A093FC06B093FD068093FE0690932A
:1050D000FF06A0930007B09301072DE232EB4DEDE0
:1050E0005FE3609144027091450280914602909185
:1050F00047020E94D4AC60930B0270930C02809321
:105100000D0290930E0220E030E040E752E40E944E
:1051100006AAECE4CE2EE7E0DE2E7B018C0122E035
:1051200037E04EEF56E06AEF76E086EF96E00E94B9
:10513000A8680E94CE7A0E94BE738091F606909174
:10514000F706A091F806B091F9068093680790934E
:105150006907A0936A07B0936B078091FA06909154
:10516000FB06A091FC06B091FD0680936C0790931E
:105170006D07A0936E07B0936F078091FE06909124
:10518000FF06A0910007B0910107809370079093EC
:105190007107A0937207B093730780E090E00E94BC
:1051A000891481E090E00E94891482E090E00E94DE
:1051B000891461E088E697E00E94F61D24E737E055
:1051C00046E457E062E477E08EE397E00E940972DC
:1051D00080E00E94C5738091E2069091E306A09161
:1051E000E406B091E50680930B0290930C02A09325
:1051F0000D02B0930E0280917807909179079093F9
:105200004302809342020E94CDA6609341057093B1
:10521000420580934305909344050E94BE730C940D
:10522000D33981E08093D5060C94D339EDEAF6E0CA
:105230008491882341F09091C00095FFFCCF80932A
:10524000C6003196F5CF88E50E94A2178823A1F009
:105250000E948E17609368077093690780936A07AE
:1052600090936B070E948E176093F6067093F70673
:105270008093F8069093F90689E50E94A217882387
:10528000A1F00E948E1760936C0770936D07809356
:105290006E0790936F070E948E176093FA067093C3
:1052A000FB068093FC069093FD068AE50E94A217F8
:1052B0008823A1F00E948E17609370077093710786
:1052C00080937207909373070E948E176093FE0677
:1052D0007093FF068093000790930107E8E8F6E0DB
:1052E0008491882341F09091C00095FFFCCF80937A
:1052F000C6003196F5CF4091F6065091F7066091C1
:10530000F8067091F90622E030E08CEA94E00E9401
:105310008214E4E8F6E08491882341F09091C00083
:1053200095FFFCCF8093C6003196F5CF4091FA06E9
:105330005091FB066091FC067091FD0622E030E082
:105340008CEA94E00E948214E0E8F6E084918823DD
:1053500041F09091C00095FFFCCF8093C60031963C
:10536000F5CF4091FE065091FF06609100077091C5
:10537000010722E030E08CEA94E00E948214EEE71C
:10538000F6E08491882341F09091C00095FFFCCF16
:105390008093C6003196F5CF61E086EF96E00E94DB
:1053A000F61D19821A821B821C829E012F5F3F4FBD
:1053B00046E457E062E477E08EE397E00E940972EA
:1053C0000C94D3398DE40E94A217882311F40C9415
:1053D00002390E948E170E946EAA6237710511F47D
:1053E0000C94F4310CF0A5C06F31710509F449C378
:1053F000A4F56631710509F4E8C1BCF461317105A9
:1054000009F49EC134F46230710508F43FC10C9474
:10541000D3396431710509F4A4C10CF0D0C16231F3
:10542000710509F40AC70C94D3396A31710509F47E
:1054300001C23CF46831710509F4E6C10CF4CBC13A
:10544000F3C16C31710509F409C20CF401C26E316B
:10545000710509F439C20C94D3396435710509F426
:10546000ECC694F56035710509F4D1C654F4603288
:10547000710509F468C26A32710509F48BC30C9492
:10548000D3396235710509F4CFC60CF0D1C60E943C
:10549000837E0E94CE7A129A0E949B7B10924B07C9
:1054A00010924A0768EE73E080E090E00E94FCA64C
:1054B000269A2E9A1092230288EA95E00E941B8D6C
:1054C0000E94BF8D0C94D3396936710509F4BCC3B1
:1054D00024F56C35710509F4E3C66836710509F4E5
:1054E00084C36535710511F00C94D33983E50E94AE
:1054F000A2170E948E1720E030E04AE754E40E9491
:10550000D4AC0E9473AA60933D0570933E058093CE
:105510003F05909340050C94D3396B36710509F41F
:1055200070C60CF43EC66D36710509F49AC40C942D
:10553000D3396D3D710511F40C944A350CF048C017
:105540006E3B710509F429C5ECF46737710509F460
:105550009AC054F46337710509F424C7653771059F
:1055600009F42EC70C94D3396937710511F40C94E2
:10557000093314F40C9405336C38710509F453C3E2
:105580000C94D3396C3C710511F40C944A348CF4AE
:10559000693C710511F40C940E346B3C710511F4E7
:1055A0000C942E34683C710511F00C94D3390C9492
:1055B0008F336E3C710511F40C94C83414F40C94C0
:1055C0006A346C3D710511F40C943B350C94D3395D
:1055D000653F21E0720711F40C94C6362CF56D324C
:1055E00081E0780711F40C94BA3564F4623E7105D9
:1055F00011F40C9459356C32714011F40C948435CB
:105600000C94D3396F32F1E07F0711F40C948E368D
:1056100014F40C9480366039714011F00C94D33935
:105620000E94CE7A0C94D339693982E0780711F45C
:105630000C94E43484F4673FE1E07E0711F40C94A9
:10564000CE3614F40C94CB366835724011F40C94B9
:10565000D1360C94D339603A33E0730709F4DDC1D5
:10566000673E83E0780711F40C94EB386A39724096
:1056700011F00C94D33909E114E080E5E82E87E0BD
:10568000F82E0C942C35E7E7F3E0CDC78DE696E0D5
:105690000E941B8D80E50E94A217882339F00E948A
:1056A0008E170E9473AA6B017C0103C0C12CD12C00
:1056B000760183E50E94A217882361F00E948E176D
:1056C00020E030E04AE754E40E94D4AC0E9473AA80
:1056D0006B017C010E94CE7A0E94CDA660934105A9
:1056E000709342058093430590934405C114D104FF
:1056F000E104F104A9F00E94CDA64B015C018C0CE1
:105700009D1CAE1CBF1C0E94CDA6681579058A059C
:105710009B0580F40E948B8E81110CC00C94D639AD
:105720000E948B8E811106C00E94587C61D80E9415
:10573000BF8DF6CF8EE596E00E941B8D0C94D33979
:1057400085E596E00E941B8D5F988A989FB7F89434
:10575000809108018E7F809308019FBF12980C945E
:10576000D339E5E4F6E08491882341F09091C000BC
:1057700095FFFCCF8093C6003196F5CF8091C00095
:1057800085FFFCCF8AE08093C6008EE797E00E94F9
:10579000934EE7E3F6E08491882341F09091C000B6
:1057A00095FFFCCF8093C6003196F5CF8091C00065
:1057B00085FFFCCF8AE08093C6000C94D3398EE736
:1057C00097E00E94EA4E0C94D3398EE797E00E944E
:1057D000AE4F0C94D33900914505109146050C5FEE
:1057E0001F4F6AE270E0C8010E9449B1009719F0AA
:1057F000FC013197108221E041E0B8018EE797E08B
:105800000E941D500C94D3398EE797E00E94B24F4E
:105810000E94CDA66093390570933A0580933B05AD
:1058200090933C050C94D3398EE797E00E94B94FD2
:105830000C94D33980918107882311F40C94D339C7
:1058400083E50E94A21781110C94DE390C94D339A0
:105850008EE797E00E946A540C94D33980914505F5
:10586000909146056AE270E004960E9449B18C016D
:105870000097E1F020914F053091500540E6429F9E
:10588000C001439F900D11246EE470E08B5A9A4F33
:105890000E9449B160E270E00E9449B10196909384
:1058A000460580934505F8013197108260914505C2
:1058B000709146056C5F7F4F21E040E08EE797E0F6
:1058C0000E941D500C94D33980918107882311F4D4
:1058D0000C94D33960E08EE797E00E9424568091C3
:1058E0004505909146056AE270E004960E9449B130
:1058F0008C010097E1F020914F053091500540E672
:10590000429FC001439F900D11246EE470E08B5ABA
:105910009A4F0E9449B160E270E00E9449B101963D
:105920009093460580934505F80131971082609168
:105930004505709146056C5F7F4F8EE797E00E94AA
:1059400031530C94D3398091800781110E94CE7A13
:1059500000914505109146050C5F1F4F6AE270E00B
:10596000C8010E9449B17C0161E270E0C8010E9457
:1059700049B1009719F08C010F5F1F4FE114F1043A
:1059800019F0F7013197108280E50E94A217F82ED6
:1059900020914505309146050217130708F4F12CB4
:1059A00080918107882311F40C94D33921E02F25AD
:1059B00041E0B8018EE797E00E941D5083E50E9408
:1059C000A2178823B9F0209145053091460520178C
:1059D000310780F40E949717AB01BC014093010A84
:1059E0005093020A6093030A7093040A8CE499E0CE
:1059F0000E947F428EE797E00E94B24FF1100C9414
:105A0000D3390E94CDA66093390570933A058093EF
:105A10003B0590933C050C94D339809145059091BA
:105A200046056AE270E005960E9449B18C01009734
:105A3000E1F020914F053091500540E6429FC001B2
:105A4000439F900D11246EE470E08B5A9A4F0E9490
:105A500049B160E270E00E9449B101969093460519
:105A600080934505F801319710826091450570914A
:105A700046056B5F7F4F8EE797E00E942C530C9496
:105A8000D3390E94CDA66093350570933605809377
:105A90003705909338050091390510913A0520910A
:105AA0003B0530913C05601B710B820B930B28EE7C
:105AB00033E040E050E00E94D0ADCA01B9012CE3D0
:105AC00030E040E050E00E94D0AD7F936F933F9371
:105AD0002F9388E296E09F938F93CE0101969F9338
